:020000040000FA
:100000000C9435000C945D000C9471000C945D0010
:100010000C945D000C945D000C945D000C945D00EC
:100020000C945D000C945D000C945D000C945D00DC
:100030000C945D000C945D000C94A2000C945D0087
:100040000C945D000C945D000C945D000C945D00BC
:100050000C945D000C945D000C945D000C945D00AC
:100060000C945D000C945D00B90011241FBECFEF0D
:10007000D8E0DEBFCDBF11E0A0E0B1E0EEEBF2E0F2
:1000800002C005900D92A634B107D9F721E0A6E48D
:10009000B1E001C01D92A934B207E1F710E0C5E359
:1000A000D0E004C02197FE010E945701C433D1075C
:1000B000C9F70E94BE000C945D010C940000FC0185
:1000C0009191992339F08091C00085FFFCCF9093E6
:1000D000C600F6CF0895589859980895589A599897
:1000E00008951F920F920FB60F9211242F933F93F2
:1000F0004F935F936F937F938F939F93AF93BF9330
:10010000EF93FF9380910001882321F080910001FB
:10011000813039F484E08093000187E391E00E940C
:100120005F00FF91EF91BF91AF919F918F917F9170
:100130006F915F914F913F912F910F900FBE0F9054
:100140001F9018951F920F920FB60F9211248F9344
:100150009F938091460190914701019690934701AA
:10016000809346019F918F910F900FBE0F901F902B
:10017000189580910001809348010895509A519AF2
:10018000529853988BB18C608BB988E0809369004A
:1001900082E08DBB789484BD83E085BD89EF87BD07
:1001A00080916E00826080936E001092C50087E699
:1001B0008093C40088E18093C10086E08093C200F0
:1001C00081E091E00E945F00C1E0D2E013E04A9933
:1001D0001FC080910001833041F41092000183E13F
:1001E00091E00E945F000E946E00809100018230C9
:1001F00031F4C09300018CE191E00E945F002FEF89
:1002000080E792E0215080409040E1F700C000007C
:100210009091480180910001981721F010924701B8
:100220001092460180910001809348018091000165
:10023000823079F158F4882371F08130E1F08FE158
:100240009EE40197F1F700C00000C1CF8530B8F7F8
:100250000E946B00F4CF0E946E0080914601909145
:100260004701803D974058F3D093000186E291E02A
:100270000E945F00E4CF599A58988091460190916E
:100280004701803D9740D8F2109300018EE291E043
:10029000EFCF0E946B008091460190914701803121
:1002A000974268F2C09300018CE191E0E1CFEE0F3C
:1002B000FF1F0590F491E02D0994F894FFCF0353AC
:1002C000697374656D6120496E69636961646F0A61
:1002D00000416272696E646F0A0046656368616E10
:1002E000646F0A0041626572746F0A004665636854
:1002F00061646F0A00496E746572726F6D70696433
:040300006F0A000080
:107E0000112484B714BE81FFF0D085E080938100F7
:107E100082E08093C00088E18093C10086E0809377
:107E2000C20080E18093C4008EE0C9D0259A86E02C
:107E300020E33CEF91E0309385002093840096BBD3
:107E4000B09BFECF1D9AA8958150A9F7CC24DD24C4
:107E500088248394B5E0AB2EA1E19A2EF3E0BF2EE7
:107E6000A2D0813461F49FD0082FAFD0023811F036
:107E7000013811F484E001C083E08DD089C08234E0
:107E800011F484E103C0853419F485E0A6D080C0E4
:107E9000853579F488D0E82EFF2485D0082F10E0AE
:107EA000102F00270E291F29000F111F8ED06801E7
:107EB0006FC0863521F484E090D080E0DECF843638
:107EC00009F040C070D06FD0082F6DD080E0C81688
:107ED00080E7D80618F4F601B7BEE895C0E0D1E017
:107EE00062D089930C17E1F7F0E0CF16F0E7DF06D8
:107EF00018F0F601B7BEE89568D007B600FCFDCFD4
:107F0000A601A0E0B1E02C9130E011968C91119780
:107F100090E0982F8827822B932B1296FA010C0160
:107F200087BEE89511244E5F5F4FF1E0A038BF0790
:107F300051F7F601A7BEE89507B600FCFDCF97BE46
:107F4000E89526C08437B1F42ED02DD0F82E2BD052
:107F50003CD0F601EF2C8F010F5F1F4F84911BD097
:107F6000EA94F801C1F70894C11CD11CFA94CF0C13
:107F7000D11C0EC0853739F428D08EE10CD085E9AC
:107F80000AD08FE07ACF813511F488E018D01DD067
:107F900080E101D065CF982F8091C00085FFFCCF94
:107FA0009093C60008958091C00087FFFCCF809118
:107FB000C00084FD01C0A8958091C6000895E0E648
:107FC000F0E098E1908380830895EDDF803219F02E
:107FD00088E0F5DFFFCF84E1DECF1F93182FE3DFCA
:107FE0001150E9F7F2DF1F91089580E0E8DFEE27F6
:047FF000FF270994CA
:027FFE00040479
:00000001FF
