:100000000C9435000C945D000C9471000C945D0010
:100010000C945D000C945D000C945D000C945D00EC
:100020000C945D000C945D000C945D000C945D00DC
:100030000C945D000C945D000C94A2000C945D0087
:100040000C945D000C945D000C945D000C945D00BC
:100050000C945D000C945D000C945D000C945D00AC
:100060000C945D000C945D00B90011241FBECFEF0D
:10007000D8E0DEBFCDBF11E0A0E0B1E0EEEBF2E0F2
:1000800002C005900D92A634B107D9F721E0A6E48D
:10009000B1E001C01D92A934B207E1F710E0C5E359
:1000A000D0E004C02197FE010E945701C433D1075C
:1000B000C9F70E94BE000C945D010C940000FC0185
:1000C0009191992339F08091C00085FFFCCF9093E6
:1000D000C600F6CF0895589859980895589A599897
:1000E00008951F920F920FB60F9211242F933F93F2
:1000F0004F935F936F937F938F939F93AF93BF9330
:10010000EF93FF9380910001882321F080910001FB
:10011000813039F484E08093000187E391E00E940C
:100120005F00FF91EF91BF91AF919F918F917F9170
:100130006F915F914F913F912F910F900FBE0F9054
:100140001F9018951F920F920FB60F9211248F9344
:100150009F938091460190914701019690934701AA
:10016000809346019F918F910F900FBE0F901F902B
:10017000189580910001809348010895509A519AF2
:10018000529853988BB18C608BB988E0809369004A
:1001900082E08DBB789484BD83E085BD89EF87BD07
:1001A00080916E00826080936E001092C50087E699
:1001B0008093C40088E18093C10086E08093C200F0
:1001C00081E091E00E945F00C1E0D2E013E04A9933
:1001D0001FC080910001833041F41092000183E13F
:1001E00091E00E945F000E946E00809100018230C9
:1001F00031F4C09300018CE191E00E945F002FEF89
:1002000080E792E0215080409040E1F700C000007C
:100210009091480180910001981721F010924701B8
:100220001092460180910001809348018091000165
:10023000823079F158F4882371F08130E1F08FE158
:100240009EE40197F1F700C00000C1CF8530B8F7F8
:100250000E946B00F4CF0E946E0080914601909145
:100260004701803D974058F3D093000186E291E02A
:100270000E945F00E4CF599A58988091460190916E
:100280004701803D9740D8F2109300018EE291E043
:10029000EFCF0E946B008091460190914701803121
:1002A000974268F2C09300018CE191E0E1CFEE0F3C
:0E02B000FF1F0590F491E02D0994F894FFCF04
:1002BE000353697374656D6120496E696369616486
:1002CE006F0A00416272696E646F0A004665636868
:1002DE00616E646F0A0041626572746F0A00466552
:1002EE00636861646F0A00496E746572726F6D7037
:0602FE0069646F0A0000B4
:00000001FF
